{
    "contractName": "FaceRegistrar",
    "abi": [
        {
            "inputs": [
                {
                    "internalType": "address",
                    "name": "_zkVerifier",
                    "type": "address"
                }
            ],
            "stateMutability": "nonpayable",
            "type": "constructor"
        },
        {
            "inputs": [
                {
                    "internalType": "bytes32",
                    "name": "_faceHash",
                    "type": "bytes32"
                },
                {
                    "internalType": "string",
                    "name": "_ipfsHash",
                    "type": "string"
                },
                {
                    "internalType": "bytes",
                    "name": "_publicKey",
                    "type": "bytes"
                },
                {
                    "internalType": "bytes",
                    "name": "_zkProof",
                    "type": "bytes"
                }
            ],
            "name": "register",
            "outputs": [],
            "stateMutability": "nonpayable",
            "type": "function"
        },
        {
            "inputs": [],
            "name": "zkVerifier",
            "outputs": [
                {
                    "internalType": "contract IZKVerifier",
                    "name": "",
                    "type": "address"
                }
            ],
            "stateMutability": "view",
            "type": "function"
        }
    ],
    "bytecode": "608034606f57601f61039838819003918201601f19168301916001600160401b03831184841017607357808492602094604052833981010312606f57516001600160a01b03811690819003606f575f80546001600160a01b03191691909117905560405161031090816100888239f35b5f80fd5b634e487b7160e01b5f52604160045260245ffdfe60806040526004361015610011575f80fd5b5f3560e01c80635a9522d11461005a5763d6df096d1461002f575f80fd5b34610056575f366003190112610056575f546040516001600160a01b039091168152602090f35b5f80fd5b346100565760803660031901126100565760243567ffffffffffffffff811161005657366023820112156100565761009c903690602481600401359101610276565b5060443567ffffffffffffffff8111610056576100bd9036906004016102bc565b5060643567ffffffffffffffff8111610056576100de9036906004016102bc565b60409081516100ed8382610240565b6001815260208101601f19840136823781511561022c5791602092600435815260018060a01b035f54169260848651958694632ef2df1d60e21b8652886004870152805191829182604489015201606487015e5f60648287010152601f801991011684016064810192600319606487840301016024870152518093520191905f5b8181106102135750505091818060209403915afa908115610209575f916101ce575b501561019857005b5162461bcd60e51b815260206004820152601060248201526f24b73b30b634b2102d2590383937b7b360811b6044820152606490fd5b90506020813d602011610201575b816101e960209383610240565b81010312610056575180151581036100565782610190565b3d91506101dc565b82513d5f823e3d90fd5b825184528694506020938401939092019160010161016e565b634e487b7160e01b5f52603260045260245ffd5b90601f8019910116810190811067ffffffffffffffff82111761026257604052565b634e487b7160e01b5f52604160045260245ffd5b92919267ffffffffffffffff821161026257604051916102a0601f8201601f191660200184610240565b829481845281830111610056578281602093845f960137010152565b9080601f83011215610056578160206102d793359101610276565b9056fea26469706673582212201094319fff24b1a4255e6c52cd3481224debe0f50f4830424ba50a62bd6c72f564736f6c634300081c0033",
    "sourcePath": "/Users/abhaydeshpande/Desktop/Ross/src/contracts/FaceRegistrar.sol",
    "compiler": {
        "name": "solc",
        "version": "0.8.28+commit.7893614a"
    },
    "functionHashes": {
        "register(bytes32,string,bytes,bytes)": "5a9522d1",
        "zkVerifier()": "d6df096d"
    },
    "gasEstimates": {
        "creation": {
            "codeDepositCost": "156800",
            "executionCost": "infinite",
            "totalCost": "infinite"
        },
        "external": {
            "register(bytes32,string,bytes,bytes)": "infinite",
            "zkVerifier()": "2290"
        }
    }
}