{
    "contractName": "FaceRegistration",
    "abi": [
        {
            "inputs": [],
            "stateMutability": "nonpayable",
            "type": "constructor"
        },
        {
            "anonymous": false,
            "inputs": [
                {
                    "indexed": true,
                    "internalType": "address",
                    "name": "wallet",
                    "type": "address"
                },
                {
                    "indexed": false,
                    "internalType": "uint256",
                    "name": "amount",
                    "type": "uint256"
                }
            ],
            "name": "PaymentSent",
            "type": "event"
        },
        {
            "anonymous": false,
            "inputs": [
                {
                    "indexed": true,
                    "internalType": "address",
                    "name": "wallet",
                    "type": "address"
                },
                {
                    "indexed": false,
                    "internalType": "bytes32",
                    "name": "faceHash",
                    "type": "bytes32"
                },
                {
                    "indexed": false,
                    "internalType": "bytes",
                    "name": "publicKey",
                    "type": "bytes"
                },
                {
                    "indexed": false,
                    "internalType": "string",
                    "name": "ipfsHash",
                    "type": "string"
                },
                {
                    "indexed": false,
                    "internalType": "uint256",
                    "name": "timestamp",
                    "type": "uint256"
                }
            ],
            "name": "Registered",
            "type": "event"
        },
        {
            "inputs": [],
            "name": "claimPayment",
            "outputs": [],
            "stateMutability": "nonpayable",
            "type": "function"
        },
        {
            "inputs": [],
            "name": "deposit",
            "outputs": [],
            "stateMutability": "payable",
            "type": "function"
        },
        {
            "inputs": [
                {
                    "internalType": "address",
                    "name": "_wallet",
                    "type": "address"
                }
            ],
            "name": "getRegistration",
            "outputs": [
                {
                    "components": [
                        {
                            "internalType": "address",
                            "name": "wallet",
                            "type": "address"
                        },
                        {
                            "internalType": "bytes",
                            "name": "publicKey",
                            "type": "bytes"
                        },
                        {
                            "internalType": "bytes32",
                            "name": "faceHash",
                            "type": "bytes32"
                        },
                        {
                            "internalType": "string",
                            "name": "ipfsHash",
                            "type": "string"
                        },
                        {
                            "internalType": "uint256",
                            "name": "timestamp",
                            "type": "uint256"
                        }
                    ],
                    "internalType": "struct FaceRegistration.Registration",
                    "name": "",
                    "type": "tuple"
                }
            ],
            "stateMutability": "view",
            "type": "function"
        },
        {
            "inputs": [],
            "name": "owner",
            "outputs": [
                {
                    "internalType": "address",
                    "name": "",
                    "type": "address"
                }
            ],
            "stateMutability": "view",
            "type": "function"
        },
        {
            "inputs": [
                {
                    "internalType": "address",
                    "name": "",
                    "type": "address"
                }
            ],
            "name": "paymentSent",
            "outputs": [
                {
                    "internalType": "bool",
                    "name": "",
                    "type": "bool"
                }
            ],
            "stateMutability": "view",
            "type": "function"
        },
        {
            "inputs": [
                {
                    "internalType": "bytes32",
                    "name": "_faceHash",
                    "type": "bytes32"
                },
                {
                    "internalType": "bytes",
                    "name": "_publicKey",
                    "type": "bytes"
                },
                {
                    "internalType": "string",
                    "name": "_ipfsHash",
                    "type": "string"
                }
            ],
            "name": "register",
            "outputs": [],
            "stateMutability": "nonpayable",
            "type": "function"
        },
        {
            "inputs": [
                {
                    "internalType": "uint256",
                    "name": "",
                    "type": "uint256"
                }
            ],
            "name": "registrants",
            "outputs": [
                {
                    "internalType": "address",
                    "name": "",
                    "type": "address"
                }
            ],
            "stateMutability": "view",
            "type": "function"
        },
        {
            "inputs": [
                {
                    "internalType": "address",
                    "name": "",
                    "type": "address"
                }
            ],
            "name": "registrations",
            "outputs": [
                {
                    "internalType": "address",
                    "name": "wallet",
                    "type": "address"
                },
                {
                    "internalType": "bytes",
                    "name": "publicKey",
                    "type": "bytes"
                },
                {
                    "internalType": "bytes32",
                    "name": "faceHash",
                    "type": "bytes32"
                },
                {
                    "internalType": "string",
                    "name": "ipfsHash",
                    "type": "string"
                },
                {
                    "internalType": "uint256",
                    "name": "timestamp",
                    "type": "uint256"
                }
            ],
            "stateMutability": "view",
            "type": "function"
        },
        {
            "inputs": [],
            "name": "totalRegistrants",
            "outputs": [
                {
                    "internalType": "uint256",
                    "name": "",
                    "type": "uint256"
                }
            ],
            "stateMutability": "view",
            "type": "function"
        },
        {
            "stateMutability": "payable",
            "type": "receive"
        }
    ],
    "bytecode": "608080604052346026575f80546001600160a01b03191633179055610a68908161002b8239f35b5f80fdfe608080604052600436101561001c575b50361561001a575f80fd5b005b5f3560e01c908163391b5fb6146107cf575080636ac4d5821461078d5780637273106214610687578063765e33fd146106465780638da5cb5b1461061f5780638e4a5d80146102b1578063942e6bcf14610216578063c7dea2f21461009c5763d0e30db01461008b575f61000f565b5f36600319011261009857005b5f80fd5b34610098575f36600319011261009857335f908152600160205260409020546001600160a01b0316156101e057335f52600360205260ff60405f20541661019b57662386f26fc10000471061015657335f52600360205260405f20600160ff198254161790555f808080662386f26fc100003382f11561014b57604051662386f26fc1000081527f47db2abce6d5fbcd80ffd9b4ba74dcde804a746ef732bc7f8a70fabfc912c59060203392a2005b6040513d5f823e3d90fd5b60405162461bcd60e51b815260206004820152601d60248201527f496e73756666696369656e7420636f6e74726163742062616c616e63650000006044820152606490fd5b60405162461bcd60e51b815260206004820152601760248201527f5061796d656e7420616c726561647920636c61696d65640000000000000000006044820152606490fd5b60405162461bcd60e51b815260206004820152600e60248201526d139bdd081c9959da5cdd195c995960921b6044820152606490fd5b34610098576020366003190112610098576004356001600160a01b03811690819003610098575f52600160205260405f2060018060a01b0381541661025d600183016108dd565b916102a760028201546004610274600385016108dd565b93015492610294604051968796875260a0602088015260a0870190610815565b9160408601528482036060860152610815565b9060808301520390f35b346100985760603660031901126100985760043560243567ffffffffffffffff8111610098576102e5903690600401610839565b60443567ffffffffffffffff811161009857610305903690600401610839565b335f908152600160205260409020546001600160a01b03166105e55760405161032d8161089f565b33815261033b36858761097d565b602082019081526040820187815261035436858761097d565b90606084019182526080840192428452335f52600160205260405f209460018060a01b039051166bffffffffffffffffffffffff60a01b86541617855560018501905180519067ffffffffffffffff82116104f1576103bd826103b78554610867565b856109c3565b602090601f8311600114610582576103ec92915f9183610577575b50508160011b915f199060031b1c19161790565b90555b516002840155518051600384019167ffffffffffffffff82116104f15761041a826103b78554610867565b602090601f831160011461051057918061044d9260049695945f926105055750508160011b915f199060031b1c19161790565b90555b51910155600254680100000000000000008110156104f1577f92e9f2954302897c701ace7a6e3d52d379a699fac7d066deb3f207101edc1d0c946104e2946104a18360016104d495016002556107e9565b81546001600160a01b0360039290921b91821b19163390911b179055604051978852608060208901819052880191610a12565b918583036040870152610a12565b914260608201528033930390a2005b634e487b7160e01b5f52604160045260245ffd5b015190508c806103d8565b90601f19831691845f52815f20925f5b81811061055f575091600193918560049897969410610547575b505050811b019055610450565b01515f1960f88460031b161c191690558b808061053a565b92936020600181928786015181550195019301610520565b015190508d806103d8565b90601f19831691845f52815f20925f5b8181106105cd57509084600195949392106105b5575b505050811b0190556103ef565b01515f1960f88460031b161c191690558c80806105a8565b92936020600181928786015181550195019301610592565b60405162461bcd60e51b8152602060048201526012602482015271105b1c9958591e481c9959da5cdd195c995960721b6044820152606490fd5b34610098575f366003190112610098575f546040516001600160a01b039091168152602090f35b34610098576020366003190112610098576004356001600160a01b03811690819003610098575f526003602052602060ff60405f2054166040519015158152f35b34610098576020366003190112610098576004356001600160a01b03811690819003610098575f60806040516106bc8161089f565b8281526060602082015282604082015260608082015201525f52600160205260405f206040516106eb8161089f565b81546001600160a01b03168152610704600183016108dd565b91602082019283526107826002820154604084019081526004610729600385016108dd565b9360608601948552015492608085019384526107696040519687966020885260018060a01b0390511660208801525160a0604088015260c0870190610815565b9151606086015251848203601f19016080860152610815565b905160a08301520390f35b3461009857602036600319011261009857600435600254811015610098576107b66020916107e9565b905460405160039290921b1c6001600160a01b03168152f35b34610098575f366003190112610098576020906002548152f35b6002548110156108015760025f5260205f2001905f90565b634e487b7160e01b5f52603260045260245ffd5b805180835260209291819084018484015e5f828201840152601f01601f1916010190565b9181601f840112156100985782359167ffffffffffffffff8311610098576020838186019501011161009857565b90600182811c92168015610895575b602083101461088157565b634e487b7160e01b5f52602260045260245ffd5b91607f1691610876565b60a0810190811067ffffffffffffffff8211176104f157604052565b90601f8019910116810190811067ffffffffffffffff8211176104f157604052565b9060405191825f8254926108f084610867565b808452936001811690811561095b5750600114610917575b50610915925003836108bb565b565b90505f9291925260205f20905f915b81831061093f575050906020610915928201015f610908565b6020919350806001915483858901015201910190918492610926565b90506020925061091594915060ff191682840152151560051b8201015f610908565b92919267ffffffffffffffff82116104f157604051916109a7601f8201601f1916602001846108bb565b829481845281830111610098578281602093845f960137010152565b601f82116109d057505050565b5f5260205f20906020601f840160051c83019310610a08575b601f0160051c01905b8181106109fd575050565b5f81556001016109f2565b90915081906109e9565b908060209392818452848401375f828201840152601f01601f191601019056fea26469706673582212207015feecb8a00a3cb8161214ea7fbc9eaac5332d748638f59392f62670d966a364736f6c634300081c0033",
    "sourcePath": "/Users/abhaydeshpande/Desktop/Ross/src/contracts/FaceRegistar.sol",
    "compiler": {
        "name": "solc",
        "version": "0.8.28+commit.7893614a"
    },
    "functionHashes": {
        "claimPayment()": "c7dea2f2",
        "deposit()": "d0e30db0",
        "getRegistration(address)": "72731062",
        "owner()": "8da5cb5b",
        "paymentSent(address)": "765e33fd",
        "register(bytes32,bytes,string)": "8e4a5d80",
        "registrants(uint256)": "6ac4d582",
        "registrations(address)": "942e6bcf",
        "totalRegistrants()": "391b5fb6"
    },
    "gasEstimates": {
        "creation": {
            "codeDepositCost": "532800",
            "executionCost": "24810",
            "totalCost": "557610"
        },
        "external": {
            "claimPayment()": "infinite",
            "deposit()": "293",
            "getRegistration(address)": "infinite",
            "owner()": "2367",
            "paymentSent(address)": "2445",
            "register(bytes32,bytes,string)": "infinite",
            "registrants(uint256)": "6655",
            "registrations(address)": "infinite",
            "totalRegistrants()": "2248"
        }
    }
}